{
  "contractName": "CampaignManager",
  "abi": [
    {
      "constant": true,
      "inputs": [
        {
          "name": "",
          "type": "uint256"
        }
      ],
      "name": "campaigns",
      "outputs": [
        {
          "name": "manager",
          "type": "address"
        },
        {
          "name": "startingTime",
          "type": "uint256"
        },
        {
          "name": "endingTime",
          "type": "uint256"
        },
        {
          "name": "balance",
          "type": "uint256"
        },
        {
          "name": "goal",
          "type": "uint256"
        },
        {
          "name": "cap",
          "type": "uint256"
        },
        {
          "name": "state",
          "type": "uint8"
        },
        {
          "name": "ipfsHash",
          "type": "string"
        }
      ],
      "payable": false,
      "stateMutability": "view",
      "type": "function"
    },
    {
      "constant": true,
      "inputs": [],
      "name": "emergencyStop_stopFunding",
      "outputs": [
        {
          "name": "",
          "type": "bool"
        }
      ],
      "payable": false,
      "stateMutability": "view",
      "type": "function"
    },
    {
      "constant": true,
      "inputs": [],
      "name": "emergencyStop_stopCreation",
      "outputs": [
        {
          "name": "",
          "type": "bool"
        }
      ],
      "payable": false,
      "stateMutability": "view",
      "type": "function"
    },
    {
      "constant": false,
      "inputs": [],
      "name": "renounceOwnership",
      "outputs": [],
      "payable": false,
      "stateMutability": "nonpayable",
      "type": "function"
    },
    {
      "constant": true,
      "inputs": [],
      "name": "campaignCount",
      "outputs": [
        {
          "name": "",
          "type": "uint256"
        }
      ],
      "payable": false,
      "stateMutability": "view",
      "type": "function"
    },
    {
      "constant": true,
      "inputs": [],
      "name": "owner",
      "outputs": [
        {
          "name": "",
          "type": "address"
        }
      ],
      "payable": false,
      "stateMutability": "view",
      "type": "function"
    },
    {
      "constant": false,
      "inputs": [
        {
          "name": "_newOwner",
          "type": "address"
        }
      ],
      "name": "transferOwnership",
      "outputs": [],
      "payable": false,
      "stateMutability": "nonpayable",
      "type": "function"
    },
    {
      "inputs": [],
      "payable": false,
      "stateMutability": "nonpayable",
      "type": "constructor"
    },
    {
      "anonymous": false,
      "inputs": [
        {
          "indexed": true,
          "name": "previousOwner",
          "type": "address"
        }
      ],
      "name": "OwnershipRenounced",
      "type": "event"
    },
    {
      "anonymous": false,
      "inputs": [
        {
          "indexed": true,
          "name": "previousOwner",
          "type": "address"
        },
        {
          "indexed": true,
          "name": "newOwner",
          "type": "address"
        }
      ],
      "name": "OwnershipTransferred",
      "type": "event"
    },
    {
      "constant": false,
      "inputs": [],
      "name": "enableEmergencyStop_Creation",
      "outputs": [],
      "payable": false,
      "stateMutability": "nonpayable",
      "type": "function"
    },
    {
      "constant": false,
      "inputs": [],
      "name": "enableEmergencyStop_Funding",
      "outputs": [],
      "payable": false,
      "stateMutability": "nonpayable",
      "type": "function"
    },
    {
      "constant": false,
      "inputs": [
        {
          "name": "_startingTime",
          "type": "uint256"
        },
        {
          "name": "_endingTime",
          "type": "uint256"
        },
        {
          "name": "_goal",
          "type": "uint256"
        },
        {
          "name": "_cap",
          "type": "uint256"
        },
        {
          "name": "_ipfsHash",
          "type": "string"
        }
      ],
      "name": "createCampaign",
      "outputs": [
        {
          "name": "",
          "type": "uint256"
        }
      ],
      "payable": false,
      "stateMutability": "nonpayable",
      "type": "function"
    },
    {
      "constant": false,
      "inputs": [
        {
          "name": "_campaignID",
          "type": "uint256"
        }
      ],
      "name": "fundCampaign",
      "outputs": [],
      "payable": true,
      "stateMutability": "payable",
      "type": "function"
    },
    {
      "constant": false,
      "inputs": [
        {
          "name": "_campaignID",
          "type": "uint256"
        },
        {
          "name": "_value",
          "type": "uint256"
        }
      ],
      "name": "reduceDontation",
      "outputs": [],
      "payable": false,
      "stateMutability": "nonpayable",
      "type": "function"
    },
    {
      "constant": false,
      "inputs": [
        {
          "name": "_campaignID",
          "type": "uint256"
        }
      ],
      "name": "withdrawCampaignFunds",
      "outputs": [],
      "payable": false,
      "stateMutability": "nonpayable",
      "type": "function"
    },
    {
      "constant": false,
      "inputs": [
        {
          "name": "_campaignID",
          "type": "uint256"
        }
      ],
      "name": "refundFailedCampaign",
      "outputs": [],
      "payable": false,
      "stateMutability": "nonpayable",
      "type": "function"
    },
    {
      "constant": false,
      "inputs": [
        {
          "name": "_campaignID",
          "type": "uint256"
        },
        {
          "name": "_newHash",
          "type": "string"
        }
      ],
      "name": "updateIpfsHash",
      "outputs": [],
      "payable": false,
      "stateMutability": "nonpayable",
      "type": "function"
    },
    {
      "constant": true,
      "inputs": [
        {
          "name": "_campaignID",
          "type": "uint256"
        }
      ],
      "name": "fetchCampaign",
      "outputs": [
        {
          "name": "manager",
          "type": "address"
        },
        {
          "name": "startingTime",
          "type": "uint256"
        },
        {
          "name": "endingTime",
          "type": "uint256"
        },
        {
          "name": "balance",
          "type": "uint256"
        },
        {
          "name": "goal",
          "type": "uint256"
        },
        {
          "name": "cap",
          "type": "uint256"
        },
        {
          "name": "state",
          "type": "uint8"
        },
        {
          "name": "donersAddresses",
          "type": "address[]"
        },
        {
          "name": "ipfsHash",
          "type": "string"
        }
      ],
      "payable": false,
      "stateMutability": "view",
      "type": "function"
    }
  ],
  "bytecode": "0x60806040526000600260006101000a81548160ff0219169083151502179055506000600260016101000a81548160ff02191690831515021790555034801561004657600080fd5b50336000806101000a81548173ffffffffffffffffffffffffffffffffffffffff021916908373ffffffffffffffffffffffffffffffffffffffff160217905550336000806101000a81548173ffffffffffffffffffffffffffffffffffffffff021916908373ffffffffffffffffffffffffffffffffffffffff1602179055506000600181905550611bb2806100de6000396000f3006080604052600436106100e6576000357c0100000000000000000000000000000000000000000000000000000000900463ffffffff16806314169e2a146100eb578063141961bc14610118578063195239f5146102295780631d6c7364146102405780632761ef421461026f57806338144375146103145780636661d0551461034b578063715018a61461037a5780637274e30d146103915780638da5cb5b146103bc57806392bd38bc146104135780639611c05114610433578063add33732146104a6578063d7f05db3146104d3578063f2fde38b1461062c578063fc517a131461066f575b600080fd5b3480156100f757600080fd5b5061011660048036038101908080359060200190929190505050610686565b005b34801561012457600080fd5b506101436004803603810190808035906020019092919050505061083d565b604051808973ffffffffffffffffffffffffffffffffffffffff1673ffffffffffffffffffffffffffffffffffffffff1681526020018881526020018781526020018681526020018581526020018481526020018360038111156101a357fe5b60ff16815260200180602001828103825283818151815260200191508051906020019080838360005b838110156101e75780820151818401526020810190506101cc565b50505050905090810190601f1680156102145780820380516001836020036101000a031916815260200191505b50995050505050505050505060405180910390f35b34801561023557600080fd5b5061023e61094a565b005b34801561024c57600080fd5b506102556109c2565b604051808215151515815260200191505060405180910390f35b34801561027b57600080fd5b506102fe60048036038101908080359060200190929190803590602001909291908035906020019092919080359060200190929190803590602001908201803590602001908080601f01602080910402602001604051908101604052809392919081815260200183838082843782019150505050505091929192905050506109d5565b6040518082815260200191505060405180910390f35b34801561032057600080fd5b506103496004803603810190808035906020019092919080359060200190929190505050610bb1565b005b34801561035757600080fd5b50610360610e5f565b604051808215151515815260200191505060405180910390f35b34801561038657600080fd5b5061038f610e72565b005b34801561039d57600080fd5b506103a6610f74565b6040518082815260200191505060405180910390f35b3480156103c857600080fd5b506103d1610f7a565b604051808273ffffffffffffffffffffffffffffffffffffffff1673ffffffffffffffffffffffffffffffffffffffff16815260200191505060405180910390f35b61043160048036038101908080359060200190929190505050610f9f565b005b34801561043f57600080fd5b506104a460048036038101908080359060200190929190803590602001908201803590602001908080601f01602080910402602001604051908101604052809392919081815260200183838082843782019150505050505091929192905050506111e6565b005b3480156104b257600080fd5b506104d1600480360381019080803590602001909291905050506112ad565b005b3480156104df57600080fd5b506104fe6004803603810190808035906020019092919050505061155b565b604051808a73ffffffffffffffffffffffffffffffffffffffff1673ffffffffffffffffffffffffffffffffffffffff16815260200189815260200188815260200187815260200186815260200185815260200184600381111561055e57fe5b60ff1681526020018060200180602001838103835285818151815260200191508051906020019060200280838360005b838110156105a957808201518184015260208101905061058e565b50505050905001838103825284818151815260200191508051906020019080838360005b838110156105e85780820151818401526020810190506105cd565b50505050905090810190601f1680156106155780820380516001836020036101000a031916815260200191505b509b50505050505050505050505060405180910390f35b34801561063857600080fd5b5061066d600480360381019080803573ffffffffffffffffffffffffffffffffffffffff1690602001909291905050506117bb565b005b34801561067b57600080fd5b50610684611822565b005b806003600082815260200190815260200160002060000160009054906101000a900473ffffffffffffffffffffffffffffffffffffffff1673ffffffffffffffffffffffffffffffffffffffff163373ffffffffffffffffffffffffffffffffffffffff161415156106f757600080fd5b8160036000828152602001908152602001600020600201544211151561071c57600080fd5b826003600082815260200190815260200160002060040154600360008381526020019081526020016000206003015411151561075757600080fd5b836002600381111561076557fe5b6003600083815260200190815260200160002060060160009054906101000a900460ff16600381111561079457fe5b141515156107a157600080fd5b60026003600087815260200190815260200160002060060160006101000a81548160ff021916908360038111156107d457fe5b02179055503373ffffffffffffffffffffffffffffffffffffffff166108fc60036000888152602001908152602001600020600301549081150290604051600060405180830381858888f19350505050158015610835573d6000803e3d6000fd5b505050505050565b60036020528060005260406000206000915090508060000160009054906101000a900473ffffffffffffffffffffffffffffffffffffffff16908060010154908060020154908060030154908060040154908060050154908060060160009054906101000a900460ff1690806009018054600181600116156101000203166002900480601f0160208091040260200160405190810160405280929190818152602001828054600181600116156101000203166002900480156109405780601f1061091557610100808354040283529160200191610940565b820191906000526020600020905b81548152906001019060200180831161092357829003601f168201915b5050505050905088565b6000809054906101000a900473ffffffffffffffffffffffffffffffffffffffff1673ffffffffffffffffffffffffffffffffffffffff163373ffffffffffffffffffffffffffffffffffffffff161415156109a557600080fd5b6001600260006101000a81548160ff021916908315150217905550565b600260019054906101000a900460ff1681565b6000606086864282101515156109ea57600080fd5b81811115156109f857600080fd5b8686600081141515610a13578181111515610a1257600080fd5b5b60001515600260009054906101000a900460ff161515141515610a3557600080fd5b610120604051908101604052803373ffffffffffffffffffffffffffffffffffffffff1681526020018c81526020018b8152602001600081526020018a815260200189815260200160006003811115610a8a57fe5b81526020018681526020018881525060036000600154815260200190815260200160002060008201518160000160006101000a81548173ffffffffffffffffffffffffffffffffffffffff021916908373ffffffffffffffffffffffffffffffffffffffff1602179055506020820151816001015560408201518160020155606082015181600301556080820151816004015560a0820151816005015560c08201518160060160006101000a81548160ff02191690836003811115610b4b57fe5b021790555060e0820151816008019080519060200190610b6c929190611994565b50610100820151816009019080519060200190610b8a929190611a1e565b50905050600180600082825401925050819055506001549550505050505095945050505050565b81600360008281526020019081526020016000206001015442111515610bd657600080fd5b82600360008281526020019081526020016000206002015442101515610bfb57600080fd5b8383600360008381526020019081526020016000206004015460036000848152602001908152602001600020600301541115610c6e57600360008381526020019081526020016000206004015481600360008581526020019081526020016000206003015403111515610c6d57600080fd5b5b858560008060009150600090505b6003600085815260200190815260200160002060070160003373ffffffffffffffffffffffffffffffffffffffff1673ffffffffffffffffffffffffffffffffffffffff16815260200190815260200160002080549050811015610d56576003600085815260200190815260200160002060070160003373ffffffffffffffffffffffffffffffffffffffff1673ffffffffffffffffffffffffffffffffffffffff16815260200190815260200160002081815481101515610d3a57fe5b9060005260206000200154820191508080600101915050610c7c565b600083830312151515610d6857600080fd5b88600360008c815260200190815260200160002060030160008282540392505081905550600360008b815260200190815260200160002060070160003373ffffffffffffffffffffffffffffffffffffffff1673ffffffffffffffffffffffffffffffffffffffff1681526020019081526020016000208960000390806001815401808255809150509060018203906000526020600020016000909192909190915055503373ffffffffffffffffffffffffffffffffffffffff166108fc8a9081150290604051600060405180830381858888f19350505050158015610e52573d6000803e3d6000fd5b5050505050505050505050565b600260009054906101000a900460ff1681565b6000809054906101000a900473ffffffffffffffffffffffffffffffffffffffff1673ffffffffffffffffffffffffffffffffffffffff163373ffffffffffffffffffffffffffffffffffffffff16141515610ecd57600080fd5b6000809054906101000a900473ffffffffffffffffffffffffffffffffffffffff1673ffffffffffffffffffffffffffffffffffffffff167ff8df31144d9c2f0f6b59d69b8b98abd5459d07f2742c4df920b25aae33c6482060405160405180910390a260008060006101000a81548173ffffffffffffffffffffffffffffffffffffffff021916908373ffffffffffffffffffffffffffffffffffffffff160217905550565b60015481565b6000809054906101000a900473ffffffffffffffffffffffffffffffffffffffff1681565b80600360008281526020019081526020016000206001015442111515610fc457600080fd5b81600360008281526020019081526020016000206002015442101515610fe957600080fd5b826003600082815260200190815260200160002060050154346003600084815260200190815260200160002060030154011115151561102757600080fd5b60001515600260019054906101000a900460ff16151514151561104957600080fd5b3460036000868152602001908152602001600020600301600082825401925050819055506003600085815260200190815260200160002060070160003373ffffffffffffffffffffffffffffffffffffffff1673ffffffffffffffffffffffffffffffffffffffff168152602001908152602001600020349080600181540180825580915050906001820390600052602060002001600090919290919091505550600360008581526020019081526020016000206008013390806001815401808255809150509060018203906000526020600020016000909192909190916101000a81548173ffffffffffffffffffffffffffffffffffffffff021916908373ffffffffffffffffffffffffffffffffffffffff160217905550506001600381111561117157fe5b6003600086815260200190815260200160002060060160009054906101000a900460ff1660038111156111a057fe5b1415156111e05760016003600086815260200190815260200160002060060160006101000a81548160ff021916908360038111156111da57fe5b02179055505b50505050565b816003600082815260200190815260200160002060000160009054906101000a900473ffffffffffffffffffffffffffffffffffffffff1673ffffffffffffffffffffffffffffffffffffffff163373ffffffffffffffffffffffffffffffffffffffff1614151561125757600080fd5b8260036000828152602001908152602001600020600101544210151561127c57600080fd5b826003600086815260200190815260200160002060090190805190602001906112a6929190611a9e565b5050505050565b6000808260006003600083815260200190815260200160002060070160003373ffffffffffffffffffffffffffffffffffffffff1673ffffffffffffffffffffffffffffffffffffffff1681526020019081526020016000208054905011151561131657600080fd5b8360036000828152602001908152602001600020600201544211151561133b57600080fd5b8460036000828152602001908152602001600020600201544211151561136057600080fd5b6003600082815260200190815260200160002060040154600360008381526020019081526020016000206003015410151561139a57600080fd5b60009450600093505b6003600087815260200190815260200160002060070160003373ffffffffffffffffffffffffffffffffffffffff1673ffffffffffffffffffffffffffffffffffffffff1681526020019081526020016000208054905084101561147d576003600087815260200190815260200160002060070160003373ffffffffffffffffffffffffffffffffffffffff1673ffffffffffffffffffffffffffffffffffffffff1681526020019081526020016000208481548110151561146157fe5b90600052602060002001548501945083806001019450506113a3565b60008511151561148c57600080fd5b6003600087815260200190815260200160002060070160003373ffffffffffffffffffffffffffffffffffffffff1673ffffffffffffffffffffffffffffffffffffffff1681526020019081526020016000208560000390806001815401808255809150509060018203906000526020600020016000909192909190915055503373ffffffffffffffffffffffffffffffffffffffff166108fc869081150290604051600060405180830381858888f19350505050158015611552573d6000803e3d6000fd5b50505050505050565b6000806000806000806000606080600360008b815260200190815260200160002060000160009054906101000a900473ffffffffffffffffffffffffffffffffffffffff169850600360008b8152602001908152602001600020600101549750600360008b8152602001908152602001600020600201549650600360008b8152602001908152602001600020600301549550600360008b8152602001908152602001600020600401549450600360008b8152602001908152602001600020600501549350600360008b815260200190815260200160002060060160009054906101000a900460ff169250600360008b81526020019081526020016000206008018054806020026020016040519081016040528092919081815260200182805480156116db57602002820191906000526020600020905b8160009054906101000a900473ffffffffffffffffffffffffffffffffffffffff1673ffffffffffffffffffffffffffffffffffffffff1681526020019060010190808311611691575b50505050509150600360008b81526020019081526020016000206009018054600181600116156101000203166002900480601f01602080910402602001604051908101604052809291908181526020018280546001816001161561010002031660029004801561178c5780601f106117615761010080835404028352916020019161178c565b820191906000526020600020905b81548152906001019060200180831161176f57829003601f168201915b505050505090508888888888888888889850985098509850985098509850985098509193959799909294969850565b6000809054906101000a900473ffffffffffffffffffffffffffffffffffffffff1673ffffffffffffffffffffffffffffffffffffffff163373ffffffffffffffffffffffffffffffffffffffff1614151561181657600080fd5b61181f8161189a565b50565b6000809054906101000a900473ffffffffffffffffffffffffffffffffffffffff1673ffffffffffffffffffffffffffffffffffffffff163373ffffffffffffffffffffffffffffffffffffffff1614151561187d57600080fd5b6001600260016101000a81548160ff021916908315150217905550565b600073ffffffffffffffffffffffffffffffffffffffff168173ffffffffffffffffffffffffffffffffffffffff16141515156118d657600080fd5b8073ffffffffffffffffffffffffffffffffffffffff166000809054906101000a900473ffffffffffffffffffffffffffffffffffffffff1673ffffffffffffffffffffffffffffffffffffffff167f8be0079c531659141344cd1fd0a4f28419497f9722a3daafe3b4186f6b6457e060405160405180910390a3806000806101000a81548173ffffffffffffffffffffffffffffffffffffffff021916908373ffffffffffffffffffffffffffffffffffffffff16021790555050565b828054828255906000526020600020908101928215611a0d579160200282015b82811115611a0c5782518260006101000a81548173ffffffffffffffffffffffffffffffffffffffff021916908373ffffffffffffffffffffffffffffffffffffffff160217905550916020019190600101906119b4565b5b509050611a1a9190611b1e565b5090565b828054600181600116156101000203166002900490600052602060002090601f016020900481019282601f10611a5f57805160ff1916838001178555611a8d565b82800160010185558215611a8d579182015b82811115611a8c578251825591602001919060010190611a71565b5b509050611a9a9190611b61565b5090565b828054600181600116156101000203166002900490600052602060002090601f016020900481019282601f10611adf57805160ff1916838001178555611b0d565b82800160010185558215611b0d579182015b82811115611b0c578251825591602001919060010190611af1565b5b509050611b1a9190611b61565b5090565b611b5e91905b80821115611b5a57600081816101000a81549073ffffffffffffffffffffffffffffffffffffffff021916905550600101611b24565b5090565b90565b611b8391905b80821115611b7f576000816000905550600101611b67565b5090565b905600a165627a7a7230582027454390caf7172bdd1fb938c8fe3738752d702d226b794480f6e9040458421e0029",
  "source": "pragma solidity ^0.4.24;\n\n// EPM Library Usage\nimport \"openzeppelin-solidity/contracts/ownership/Ownable.sol\";\n\n\n/** @title A managment contract to store and manage all Campains for the platform.\n* This enables users to create new campagins and then other users can fund them.\n* Users can only fund campains that are currently running(have started and not\n* finished). If a user withdraws from a campaign, they can only do so if it does\n* not result in the campaign no longer getting funded.\n* @author Chris Maree - SoIdarity \n*/\ncontract CampaignManager is Ownable{\n    /** @dev store the current state of the Camaign. \n    */\n    enum State{NotStarted, Running, Funded, UnderFunded}\n    \n    \n    /** @dev define the standard properties of a Campaign \n    * @notice the doners are a mapping of addresses to uints. This enables each\n    * donar to donate more than one time and for a record to be kept. Moreover,\n    * if a doner removes their donation, a negative value can be stored here to\n    * indicate the withdrawl\n    * @notice the donersAddresses is used to store an array of all donars that\n    * contributed as maps are not itterable by populated keys\n    */\n    struct Campaign {\n        address manager;\n        uint startingTime;\n        uint endingTime;\n        uint balance;\n        uint goal;\n        uint cap;\n        State state;\n        mapping(address=>int[]) doners;\n        address[] donersAddresses;\n        string ipfsHash;\n    }\n    \n    /** @dev store the total number of campaigns. Useful for retreving all of them **/\n    uint public campaignCount;\n    \n    /**\n    * @dev Stop the creation of new campagins\n    */\n    bool public emergencyStop_stopCreation = false;\n    \n    /**\n    * @dev stops the fundion of existing campagins\n    */\n    bool public emergencyStop_stopFunding = false;\n    \n    /** @dev store all campaigns as a mapping to their unique ID **/\n    mapping(uint=>Campaign) public campaigns;\n    \n    /**\n    * @dev Verify the times spesified for the campaign are valid\n    * @param _startingTime of the campaign (unix time stamp)\n    * @param _endingTime of the campaign (unix time stamp)\n    */\n    modifier validNewCampaignTime(uint _startingTime,uint _endingTime){\n        require(_startingTime>=now);\n        require(_endingTime>_startingTime);\n        _;\n    }\n    \n    /**\n    * @dev Verify the goals and cap for the campaign are valid\n    * @notice if the cap is set to zero, it is uncapped\n    * @param _goal value of the campaign (in ETH)\n    * @param _cap value of the campaign (in ETH)\n    */\n    modifier validNewCampaignFunding(uint _goal,uint _cap) {\n        if(_cap !=0){\n            require(_cap>_goal);\n        }\n        _;\n    }\n    \n    /**\n    * @dev Verify the current time is past the start time of the camaign\n    * @param _campaignID unique identifer of the campaign\n    */\n    modifier campaignHasStarted(uint _campaignID) {\n        require(now>campaigns[_campaignID].startingTime);\n        _;\n    }\n    \n    /**\n    * @dev checks if the campaign is yet to start\n    * @param _campaignID unique identifer of the campaign\n    */\n    modifier campaignNotStarted(uint _campaignID){\n        require(now < campaigns[_campaignID].startingTime);\n        _;\n    }\n\n    /**\n    * @dev checks if the campain has ended (current time more than end time)\n    * @param _campaignID unique identifer of the campaign\n    */\n    modifier campaignEnded(uint _campaignID){\n        require(now>campaigns[_campaignID].endingTime);\n        _;\n    }\n\n    /**\n    * @dev Verify the current time is not past the end time of the camaign\n    * @param _campaignID unique identifer of the campaign\n    */\n    modifier campaignHasNotEnded(uint _campaignID) {\n        require(now<campaigns[_campaignID].endingTime);\n        _;\n    }\n    \n    /**\n    * @dev checks if the campain has Succeeded (donation > than goal)\n    * @param _campaignID unique identifer of the campaign\n    */\n    modifier campaignSucceeded(uint _campaignID){\n        require(campaigns[_campaignID].balance>campaigns[_campaignID].goal);\n        _;\n    }\n\n    /**\n    * @dev checks if the campain has failed (donation < than goal)\n    * @param _campaignID unique identifer of the campaign\n    */\n    modifier campaignUnsuccessful(uint _campaignID) {\n        require(now > campaigns[_campaignID].endingTime);\n        require(campaigns[_campaignID].balance < campaigns[_campaignID].goal);\n        _;\n    }\n\n    /**\n    * @dev checks if a campain has been funded, and therefore paid out. \n    * @notice This assertion prevents manager's from withdrawing twice from a fund.\n    * @param _campaignID unique identifer of the campaign\n    */\n    modifier campaignNotFunded(uint _campaignID){\n        require(campaigns[_campaignID].state != State.Funded);\n        _;\n    }\n    \n    /**\n    * @dev Verify that the donation will not cause the campaign to exceed its cap\n    * @notice this function takes into account the current balance and the donation\n    * @param _campaignID unique identifer of the campaign\n    */\n    modifier campaignWillNotExceedCap(uint _campaignID) {\n        require(campaigns[_campaignID].balance + msg.value<=campaigns[_campaignID].cap);\n        _;\n    }\n    \n    /**\n    * @dev Verify that the donation will not cause the campaign to drop below\n    * its goal. This prevents someone from making a campaign that would succeed,\n    * fail due to cancelling their contribution\n    * @notice value is required as the user has the choice to either cancle or\n    * reduce their donation.\n    * @param _campaignID unique identifer of the campaign\n    * @param _value is the amount that the donar wants to reduce their donation by\n    */\n    modifier campaignWillNotDropBelowGoal(uint _campaignID, uint _value) {\n        if(campaigns[_campaignID].balance>campaigns[_campaignID].goal){\n            require(campaigns[_campaignID].balance-_value > campaigns[_campaignID].goal);\n        }\n        _;\n    }\n    \n    /**\n    * @dev Verify that the reduction from a donation will not cause the donation\n    * to drop below zero, and as such enabling the user to take out more than\n    * they deposited. Moreover, this check ensures that a user who did not donate\n    * cant withdraw as this assert will fail as their total donation balance will\n    * be zero.\n    * @notice the function needs to check the total donation for the user by\n    * summing over all previous donations\n    * @param _campaignID unique identifer of the campaign\n    * @param _value is the amount that the donar wants to reduce their donation by\n    */\n    modifier adequetDonationToReduce(uint _campaignID, uint _value){\n        int totalDonation = 0;\n        for (uint i=0; i<campaigns[_campaignID].doners[msg.sender].length;i++){\n            totalDonation += campaigns[_campaignID].doners[msg.sender][i];\n        }\n        require(totalDonation-int(_value)>=0);\n        _;\n    }\n    \n    /**\n    * @dev checks that the caller of the function is the campaign's manager;\n    * This is the person that create the campaign.\n    * @param _campaignID unique identifer of the campaign\n    */\n    modifier onlyManager(uint _campaignID){\n        require(msg.sender == campaigns[_campaignID].manager);\n        _;\n    }\n    /**\n    * @dev checks if a caller of the function is a Contributer to the campaign\n    * @notice If they have contributed, there will be some items within the \n    * doners array representing donations.\n    * @param _campaignID unique identifer of the campaign\n    */\n    modifier onlyContributer(uint _campaignID){\n        require(campaigns[_campaignID].doners[msg.sender].length > 0);\n        _;\n    }\n    \n    /**\n    * @dev Prevents the creation of new campaigns\n    */\n    modifier emergencyStop_Creation(){\n        require(emergencyStop_stopCreation == false);\n        _;\n    }\n    \n    /**\n    * @dev Prevents the funding of new campaigns\n    */\n    modifier emergencyStop_Funding(){\n        require(emergencyStop_stopFunding == false);\n        _;\n    }\n    \n     /** @dev Assign owner and reset campaign */\n    constructor() \n        public {\n        owner = msg.sender;\n        campaignCount = 0;\n    }\n    \n    function enableEmergencyStop_Creation()\n        public\n        onlyOwner\n    {\n        emergencyStop_stopCreation = true;\n    }\n    \n    function enableEmergencyStop_Funding()\n        public\n        onlyOwner\n    {\n        emergencyStop_stopFunding = true;\n    }\n    \n    /**\n    * @dev Generate a new campaign struct and store it. Assign manager and values\n    * @notice this sets the inital value of the State to NotStarted\n    * @param _startingTime unix time stamp of when the campaign will start\n    * @param _endingTime unix time stamp of when the campaign will end\n    * @param _goal value of the campaign (in ETH).\n    * @param _cap value of the campaign (in ETH)\n    * @param _ipfsHash represents the campain information on IPFS in a hash\n    */\n    function createCampaign(\n        uint _startingTime, \n        uint _endingTime, \n        uint _goal, \n        uint _cap, \n        string _ipfsHash\n    ) \n        public\n        validNewCampaignTime(_startingTime,_endingTime)\n        validNewCampaignFunding(_goal,_cap)\n        emergencyStop_Creation\n        returns(uint)\n    {\n        address[] memory emptydonersAddresses;\n        campaigns[campaignCount] = Campaign({\n            manager: msg.sender,\n            startingTime: _startingTime,\n            endingTime: _endingTime,\n            balance: 0,\n            goal: _goal,\n            cap: _cap,\n            state: State.NotStarted,\n            donersAddresses: emptydonersAddresses,\n            ipfsHash: _ipfsHash\n        });\n        campaignCount += 1;\n        return campaignCount;\n    }\n    \n    /**\n    * @dev Enable anyone to donate to a campaign. The campaign must have started,\n    * have not finished and not exceeded it's cap to be able to deposit.\n    * @notice this changes the state of a campaign from NotStarted -> Running\n    * @param _campaignID unique identifer of the campaign\n    */\n    function fundCampaign(uint _campaignID) \n        public\n        payable\n        campaignHasStarted(_campaignID)\n        campaignHasNotEnded(_campaignID)\n        campaignWillNotExceedCap(_campaignID)\n        emergencyStop_Funding\n    {\n        campaigns[_campaignID].balance += msg.value;\n        // Need to implicity typecast the msg.value for as donars can be\n        // negative when withdrawing\n        campaigns[_campaignID].doners[msg.sender].push(int(msg.value));\n        // There is no point in storing a doners address multiple times in the\n        //donersAddresses array so only add if you this is your first contribution\n        // if(campaigns[_campaignID].doners[msg.sender].length==0){\n            campaigns[_campaignID].donersAddresses.push(msg.sender);         \n        // }\n        if (campaigns[_campaignID].state != State.Running){\n            campaigns[_campaignID].state = State.Running;\n        }\n    }\n    \n    /**\n    * @dev Enable any donar to reduce their donation. The campaign must have,\n    * started have not finished and their reduction must not make a project that\n    * would succeed fail due to the reduction.\n    * @notice we dont need to check the state of the campain as you would only\n    * call this function if you had at some point donated and the check is done \n    * there (function fundCampaign).\n    * @param _campaignID unique identifer of the campaign\n    * @param _value the amount bywhich the campaign is reduced\n    */\n    function reduceDontation(uint _campaignID, uint _value)\n        public\n        campaignHasStarted(_campaignID)\n        campaignHasNotEnded(_campaignID)\n        campaignWillNotDropBelowGoal(_campaignID, _value)\n        adequetDonationToReduce(_campaignID, _value)\n    {\n        campaigns[_campaignID].balance -= _value;\n        // store the reduction in the doners respective array as a negative value\n        // preserving a history of reductions. The sum of this array is their\n        // respective donation\n        campaigns[_campaignID].doners[msg.sender].push(-int(_value));\n        msg.sender.transfer(_value); //refund the user for the Ether they sent in\n    }\n    \n    /**\n    * @dev Enable the campaign manager to withdraw the funds donated after the \n    * period is finished. The state of the campaign.state defines if the ownerc\n    * @notice The campaign state changes from Running -> Funded\n    * @param _campaignID unique identifer of the campaign\n    */\n    function withdrawCampaignFunds(uint _campaignID)\n        public\n        onlyManager(_campaignID)\n        campaignEnded(_campaignID)\n        campaignSucceeded(_campaignID)\n        campaignNotFunded(_campaignID)\n    {\n        // Note that we dont have to change the balance of the campaign as we\n        // prevent double withdraws by checking the state of the campaign. \n        // Leaving the balance within the campaign enables an easy way to sender\n        // the total funds sent to the campaign.\n        campaigns[_campaignID].state = State.Funded;\n        msg.sender.transfer(campaigns[_campaignID].balance);\n    }\n    \n    /**\n    * @dev Enables someone who contributed to a failed campaign to get back \n    * their contributions back. This is a sum of all their contributions\n    * period is finished. \n    * @notice The campaign state changes from Running -> Failed\n    * @param _campaignID unique identifer of the campaign\n    */\n    function refundFailedCampaign(uint _campaignID)\n        public\n        onlyContributer(_campaignID)\n        campaignEnded(_campaignID)\n        campaignUnsuccessful(_campaignID)\n    {\n        uint totalContributed = 0;\n        for (uint i = 0;i < campaigns[_campaignID].doners[msg.sender].length; i++){\n            totalContributed += uint(campaigns[_campaignID].doners[msg.sender][i]);\n        }\n        // Take away their whole contribution from their profile. This means\n        // that if they try redraw again the sum total == 0. The require is here\n        // to ensure that if the user calls again the function will not preform\n        // a transaction of 0 ether and will throw\n        require(totalContributed>0);\n        campaigns[_campaignID].doners[msg.sender].push(-int(totalContributed));\n        msg.sender.transfer(totalContributed);\n    }\n\n    /**\n    * @dev Enables a fund manager to update the ipfs hash on an entry in the \n    * case they change it. \n    * @notice They can ONLY do this before a fund is sstarted.\n    * @param _campaignID unique identifer of the campaign\n    * @param _newHash defines the new IPFS hash for the campaign\n    */\n    function updateIpfsHash(uint _campaignID, string _newHash)\n        public\n        onlyManager(_campaignID)\n        campaignNotStarted(_campaignID)\n    {\n        campaigns[_campaignID].ipfsHash = _newHash;\n    }\n    \n    function fetchCampaign(uint _campaignID)\n        public\n        view\n        returns\n        (address manager,\n        uint startingTime,\n        uint endingTime,\n        uint balance,\n        uint goal,\n        uint cap,\n        State state,\n        address[] donersAddresses,\n        string ipfsHash)\n    {\n        manager = campaigns[_campaignID].manager;\n        startingTime = campaigns[_campaignID].startingTime;\n        endingTime = campaigns[_campaignID].endingTime;\n        balance = campaigns[_campaignID].balance;\n        goal = campaigns[_campaignID].goal;\n        cap = campaigns[_campaignID].cap;\n        state = campaigns[_campaignID].state;\n        donersAddresses = campaigns[_campaignID].donersAddresses;\n        ipfsHash = campaigns[_campaignID].ipfsHash;\n        return (manager, startingTime, endingTime, balance, goal, cap, state, donersAddresses, ipfsHash);\n    }\n}",
  "sourcePath": "/home/chris/Projects/EthStarter/contracts/CampaignManager.sol",
  "compiler": {
    "name": "solc",
    "version": "0.4.24+commit.e67f0147.Emscripten.clang"
  },
  "schemaVersion": "2.0.1",
  "updatedAt": "2018-08-21T11:26:35.210Z"
}