{
  "contractName": "CampaignManager",
  "abi": [
    {
      "constant": true,
      "inputs": [
        {
          "name": "",
          "type": "uint256"
        }
      ],
      "name": "campaigns",
      "outputs": [
        {
          "name": "manager",
          "type": "address"
        },
        {
          "name": "startingTime",
          "type": "uint256"
        },
        {
          "name": "endingTime",
          "type": "uint256"
        },
        {
          "name": "balance",
          "type": "uint256"
        },
        {
          "name": "goal",
          "type": "uint256"
        },
        {
          "name": "cap",
          "type": "uint256"
        },
        {
          "name": "state",
          "type": "uint8"
        },
        {
          "name": "ipfsHash",
          "type": "string"
        }
      ],
      "payable": false,
      "stateMutability": "view",
      "type": "function"
    },
    {
      "constant": false,
      "inputs": [],
      "name": "renounceOwnership",
      "outputs": [],
      "payable": false,
      "stateMutability": "nonpayable",
      "type": "function"
    },
    {
      "constant": true,
      "inputs": [],
      "name": "owner",
      "outputs": [
        {
          "name": "",
          "type": "address"
        }
      ],
      "payable": false,
      "stateMutability": "view",
      "type": "function"
    },
    {
      "constant": false,
      "inputs": [
        {
          "name": "_newOwner",
          "type": "address"
        }
      ],
      "name": "transferOwnership",
      "outputs": [],
      "payable": false,
      "stateMutability": "nonpayable",
      "type": "function"
    },
    {
      "inputs": [],
      "payable": false,
      "stateMutability": "nonpayable",
      "type": "constructor"
    },
    {
      "anonymous": false,
      "inputs": [
        {
          "indexed": true,
          "name": "previousOwner",
          "type": "address"
        }
      ],
      "name": "OwnershipRenounced",
      "type": "event"
    },
    {
      "anonymous": false,
      "inputs": [
        {
          "indexed": true,
          "name": "previousOwner",
          "type": "address"
        },
        {
          "indexed": true,
          "name": "newOwner",
          "type": "address"
        }
      ],
      "name": "OwnershipTransferred",
      "type": "event"
    },
    {
      "constant": false,
      "inputs": [],
      "name": "enableEmergencyStop_Creation",
      "outputs": [],
      "payable": false,
      "stateMutability": "nonpayable",
      "type": "function"
    },
    {
      "constant": false,
      "inputs": [],
      "name": "enableEmergencyStop_Funding",
      "outputs": [],
      "payable": false,
      "stateMutability": "nonpayable",
      "type": "function"
    },
    {
      "constant": false,
      "inputs": [
        {
          "name": "_startingTime",
          "type": "uint256"
        },
        {
          "name": "_endingTime",
          "type": "uint256"
        },
        {
          "name": "_goal",
          "type": "uint256"
        },
        {
          "name": "_cap",
          "type": "uint256"
        },
        {
          "name": "_ipfsHash",
          "type": "string"
        }
      ],
      "name": "createCamaign",
      "outputs": [],
      "payable": false,
      "stateMutability": "nonpayable",
      "type": "function"
    },
    {
      "constant": false,
      "inputs": [
        {
          "name": "_campaignID",
          "type": "uint256"
        }
      ],
      "name": "fundCampaign",
      "outputs": [],
      "payable": true,
      "stateMutability": "payable",
      "type": "function"
    },
    {
      "constant": false,
      "inputs": [
        {
          "name": "_campaignID",
          "type": "uint256"
        },
        {
          "name": "_value",
          "type": "uint256"
        }
      ],
      "name": "reduceDontation",
      "outputs": [],
      "payable": false,
      "stateMutability": "nonpayable",
      "type": "function"
    },
    {
      "constant": false,
      "inputs": [
        {
          "name": "_campaignID",
          "type": "uint256"
        }
      ],
      "name": "withdrawCampaignFunds",
      "outputs": [],
      "payable": false,
      "stateMutability": "nonpayable",
      "type": "function"
    },
    {
      "constant": false,
      "inputs": [
        {
          "name": "_campaignID",
          "type": "uint256"
        }
      ],
      "name": "refundFailedCampaign",
      "outputs": [],
      "payable": false,
      "stateMutability": "nonpayable",
      "type": "function"
    },
    {
      "constant": false,
      "inputs": [
        {
          "name": "_campaignID",
          "type": "uint256"
        },
        {
          "name": "_newHash",
          "type": "string"
        }
      ],
      "name": "updateIpfsHash",
      "outputs": [],
      "payable": false,
      "stateMutability": "nonpayable",
      "type": "function"
    }
  ],
  "bytecode": "0x60806040526000600260006101000a81548160ff0219169083151502179055506000600260016101000a81548160ff02191690831515021790555034801561004657600080fd5b50336000806101000a81548173ffffffffffffffffffffffffffffffffffffffff021916908373ffffffffffffffffffffffffffffffffffffffff160217905550336000806101000a81548173ffffffffffffffffffffffffffffffffffffffff021916908373ffffffffffffffffffffffffffffffffffffffff160217905550600060018190555061172c806100de6000396000f3006080604052600436106100ba576000357c0100000000000000000000000000000000000000000000000000000000900463ffffffff16806314169e2a146100bf578063141961bc146100ec578063195239f5146101fd5780633814437514610214578063715018a61461024b5780638da5cb5b1461026257806392bd38bc146102b95780639611c051146102d9578063add337321461034c578063f0db27d614610379578063f2fde38b1461040a578063fc517a131461044d575b600080fd5b3480156100cb57600080fd5b506100ea60048036038101908080359060200190929190505050610464565b005b3480156100f857600080fd5b506101176004803603810190808035906020019092919050505061061b565b604051808973ffffffffffffffffffffffffffffffffffffffff1673ffffffffffffffffffffffffffffffffffffffff16815260200188815260200187815260200186815260200185815260200184815260200183600381111561017757fe5b60ff16815260200180602001828103825283818151815260200191508051906020019080838360005b838110156101bb5780820151818401526020810190506101a0565b50505050905090810190601f1680156101e85780820380516001836020036101000a031916815260200191505b50995050505050505050505060405180910390f35b34801561020957600080fd5b50610212610728565b005b34801561022057600080fd5b5061024960048036038101908080359060200190929190803590602001909291905050506107a0565b005b34801561025757600080fd5b50610260610a40565b005b34801561026e57600080fd5b50610277610b42565b604051808273ffffffffffffffffffffffffffffffffffffffff1673ffffffffffffffffffffffffffffffffffffffff16815260200191505060405180910390f35b6102d760048036038101908080359060200190929190505050610b67565b005b3480156102e557600080fd5b5061034a60048036038101908080359060200190929190803590602001908201803590602001908080601f0160208091040260200160405190810160405280939291908181526020018383808284378201915050505050509192919290505050610e05565b005b34801561035857600080fd5b5061037760048036038101908080359060200190929190505050610ecc565b005b34801561038557600080fd5b5061040860048036038101908080359060200190929190803590602001909291908035906020019092919080359060200190929190803590602001908201803590602001908080601f016020809104026020016040519081016040528093929190818152602001838380828437820191505050505050919291929050505061116b565b005b34801561041657600080fd5b5061044b600480360381019080803573ffffffffffffffffffffffffffffffffffffffff169060200190929190505050611335565b005b34801561045957600080fd5b5061046261139c565b005b806003600082815260200190815260200160002060000160009054906101000a900473ffffffffffffffffffffffffffffffffffffffff1673ffffffffffffffffffffffffffffffffffffffff163373ffffffffffffffffffffffffffffffffffffffff161415156104d557600080fd5b816003600082815260200190815260200160002060020154421115156104fa57600080fd5b826003600082815260200190815260200160002060040154600360008381526020019081526020016000206003015411151561053557600080fd5b836002600381111561054357fe5b6003600083815260200190815260200160002060060160009054906101000a900460ff16600381111561057257fe5b1415151561057f57600080fd5b60026003600087815260200190815260200160002060060160006101000a81548160ff021916908360038111156105b257fe5b02179055503373ffffffffffffffffffffffffffffffffffffffff166108fc60036000888152602001908152602001600020600301549081150290604051600060405180830381858888f19350505050158015610613573d6000803e3d6000fd5b505050505050565b60036020528060005260406000206000915090508060000160009054906101000a900473ffffffffffffffffffffffffffffffffffffffff16908060010154908060020154908060030154908060040154908060050154908060060160009054906101000a900460ff1690806009018054600181600116156101000203166002900480601f01602080910402602001604051908101604052809291908181526020018280546001816001161561010002031660029004801561071e5780601f106106f35761010080835404028352916020019161071e565b820191906000526020600020905b81548152906001019060200180831161070157829003601f168201915b5050505050905088565b6000809054906101000a900473ffffffffffffffffffffffffffffffffffffffff1673ffffffffffffffffffffffffffffffffffffffff163373ffffffffffffffffffffffffffffffffffffffff1614151561078357600080fd5b6001600260006101000a81548160ff021916908315150217905550565b816003600082815260200190815260200160002060010154421115156107c557600080fd5b826003600082815260200190815260200160002060020154421015156107ea57600080fd5b838360036000838152602001908152602001600020600501546003600084815260200190815260200160002060030154111561085d5760036000838152602001908152602001600020600501548160036000858152602001908152602001600020600301540311151561085c57600080fd5b5b858560008060009150600090505b6003600085815260200190815260200160002060070160003373ffffffffffffffffffffffffffffffffffffffff1673ffffffffffffffffffffffffffffffffffffffff16815260200190815260200160002080549050811015610945576003600085815260200190815260200160002060070160003373ffffffffffffffffffffffffffffffffffffffff1673ffffffffffffffffffffffffffffffffffffffff1681526020019081526020016000208181548110151561092957fe5b906000526020600020015482019150808060010191505061086b565b60008383031215151561095757600080fd5b88600360008c81526020019081526020016000205050600360008b815260200190815260200160002060070160003373ffffffffffffffffffffffffffffffffffffffff1673ffffffffffffffffffffffffffffffffffffffff1681526020019081526020016000208960000390806001815401808255809150509060018203906000526020600020016000909192909190915055503373ffffffffffffffffffffffffffffffffffffffff166108fc8a9081150290604051600060405180830381858888f19350505050158015610a33573d6000803e3d6000fd5b5050505050505050505050565b6000809054906101000a900473ffffffffffffffffffffffffffffffffffffffff1673ffffffffffffffffffffffffffffffffffffffff163373ffffffffffffffffffffffffffffffffffffffff16141515610a9b57600080fd5b6000809054906101000a900473ffffffffffffffffffffffffffffffffffffffff1673ffffffffffffffffffffffffffffffffffffffff167ff8df31144d9c2f0f6b59d69b8b98abd5459d07f2742c4df920b25aae33c6482060405160405180910390a260008060006101000a81548173ffffffffffffffffffffffffffffffffffffffff021916908373ffffffffffffffffffffffffffffffffffffffff160217905550565b6000809054906101000a900473ffffffffffffffffffffffffffffffffffffffff1681565b80600360008281526020019081526020016000206001015442111515610b8c57600080fd5b81600360008281526020019081526020016000206002015442101515610bb157600080fd5b8260036000828152602001908152602001600020600501543460036000848152602001908152602001600020600301540111151515610bef57600080fd5b600260019054906101000a900460ff16151515610c0857fe5b3460036000868152602001908152602001600020600301600082825401925050819055506003600085815260200190815260200160002060070160003373ffffffffffffffffffffffffffffffffffffffff1673ffffffffffffffffffffffffffffffffffffffff16815260200190815260200160002034908060018154018082558091505090600182039060005260206000200160009091929091909150555060006003600086815260200190815260200160002060070160003373ffffffffffffffffffffffffffffffffffffffff1673ffffffffffffffffffffffffffffffffffffffff168152602001908152602001600020805490501415610d8357600360008581526020019081526020016000206008013390806001815401808255809150509060018203906000526020600020016000909192909190916101000a81548173ffffffffffffffffffffffffffffffffffffffff021916908373ffffffffffffffffffffffffffffffffffffffff160217905550505b60016003811115610d9057fe5b6003600086815260200190815260200160002060060160009054906101000a900460ff166003811115610dbf57fe5b141515610dff5760016003600086815260200190815260200160002060060160006101000a81548160ff02191690836003811115610df957fe5b02179055505b50505050565b816003600082815260200190815260200160002060000160009054906101000a900473ffffffffffffffffffffffffffffffffffffffff1673ffffffffffffffffffffffffffffffffffffffff163373ffffffffffffffffffffffffffffffffffffffff16141515610e7657600080fd5b82600360008281526020019081526020016000206001015442101515610e9b57600080fd5b82600360008681526020019081526020016000206009019080519060200190610ec592919061150e565b5050505050565b6000808260006003600083815260200190815260200160002060070160003373ffffffffffffffffffffffffffffffffffffffff1673ffffffffffffffffffffffffffffffffffffffff16815260200190815260200160002080549050111515610f3557600080fd5b83600360008281526020019081526020016000206002015442111515610f5a57600080fd5b84600360008281526020019081526020016000206002015442111515610f7f57600080fd5b60036000828152602001908152602001600020600401546003600083815260200190815260200160002060030154111515610fb957600080fd5b60009450600093505b6003600087815260200190815260200160002060070160003373ffffffffffffffffffffffffffffffffffffffff1673ffffffffffffffffffffffffffffffffffffffff1681526020019081526020016000208054905084101561109c576003600087815260200190815260200160002060070160003373ffffffffffffffffffffffffffffffffffffffff1673ffffffffffffffffffffffffffffffffffffffff1681526020019081526020016000208481548110151561108057fe5b9060005260206000200154850194508380600101945050610fc2565b6003600087815260200190815260200160002060070160003373ffffffffffffffffffffffffffffffffffffffff1673ffffffffffffffffffffffffffffffffffffffff1681526020019081526020016000208560000390806001815401808255809150509060018203906000526020600020016000909192909190915055503373ffffffffffffffffffffffffffffffffffffffff166108fc869081150290604051600060405180830381858888f19350505050158015611162573d6000803e3d6000fd5b50505050505050565b6060858542821015151561117e57600080fd5b818111151561118c57600080fd5b85856000811415156111a75781811115156111a657600080fd5b5b600260009054906101000a900460ff161515156111c057fe5b610120604051908101604052803373ffffffffffffffffffffffffffffffffffffffff1681526020018b81526020018a8152602001600081526020018981526020018881526020016000600381111561121557fe5b81526020018681526020018781525060036000600154815260200190815260200160002060008201518160000160006101000a81548173ffffffffffffffffffffffffffffffffffffffff021916908373ffffffffffffffffffffffffffffffffffffffff1602179055506020820151816001015560408201518160020155606082015181600301556080820151816004015560a0820151816005015560c08201518160060160006101000a81548160ff021916908360038111156112d657fe5b021790555060e08201518160080190805190602001906112f792919061158e565b50610100820151816009019080519060200190611315929190611618565b509050506001806000828254019250508190555050505050505050505050565b6000809054906101000a900473ffffffffffffffffffffffffffffffffffffffff1673ffffffffffffffffffffffffffffffffffffffff163373ffffffffffffffffffffffffffffffffffffffff1614151561139057600080fd5b61139981611414565b50565b6000809054906101000a900473ffffffffffffffffffffffffffffffffffffffff1673ffffffffffffffffffffffffffffffffffffffff163373ffffffffffffffffffffffffffffffffffffffff161415156113f757600080fd5b6001600260016101000a81548160ff021916908315150217905550565b600073ffffffffffffffffffffffffffffffffffffffff168173ffffffffffffffffffffffffffffffffffffffff161415151561145057600080fd5b8073ffffffffffffffffffffffffffffffffffffffff166000809054906101000a900473ffffffffffffffffffffffffffffffffffffffff1673ffffffffffffffffffffffffffffffffffffffff167f8be0079c531659141344cd1fd0a4f28419497f9722a3daafe3b4186f6b6457e060405160405180910390a3806000806101000a81548173ffffffffffffffffffffffffffffffffffffffff021916908373ffffffffffffffffffffffffffffffffffffffff16021790555050565b828054600181600116156101000203166002900490600052602060002090601f016020900481019282601f1061154f57805160ff191683800117855561157d565b8280016001018555821561157d579182015b8281111561157c578251825591602001919060010190611561565b5b50905061158a9190611698565b5090565b828054828255906000526020600020908101928215611607579160200282015b828111156116065782518260006101000a81548173ffffffffffffffffffffffffffffffffffffffff021916908373ffffffffffffffffffffffffffffffffffffffff160217905550916020019190600101906115ae565b5b50905061161491906116bd565b5090565b828054600181600116156101000203166002900490600052602060002090601f016020900481019282601f1061165957805160ff1916838001178555611687565b82800160010185558215611687579182015b8281111561168657825182559160200191906001019061166b565b5b5090506116949190611698565b5090565b6116ba91905b808211156116b657600081600090555060010161169e565b5090565b90565b6116fd91905b808211156116f957600081816101000a81549073ffffffffffffffffffffffffffffffffffffffff0219169055506001016116c3565b5090565b905600a165627a7a723058208bd20292dea79369f2593824f7c4a6ac0d0b3ad9333115a541e2af78548fed130029",
  "source": "pragma solidity ^0.4.24;\n\nimport \"./Ownable.sol\";\n\n/** @title A managment contract to store and manage all Campains for the platform.\n* This enables users to create new campagins and then other users can fund them.\n* Users can only fund campains that are currently running(have started and not\n* finished). If a user withdraws from a campaign, they can only do so if it does\n* not result in the campaign no longer getting funded.\n* @author Chris Maree - SoIdarity \n*/\ncontract CampaignManager is Ownable{\n    /** @dev store the current state of the Camaign. \n    */\n    enum State{NotStarted, Running, Funded, UnderFunded}\n    \n    \n    /** @dev define the standard properties of a Campaign \n    * @notice the doners are a mapping of addresses to uints. This enables each\n    * donar to donate more than one time and for a record to be kept. Moreover,\n    * if a doner removes their donation, a negative value can be stored here to\n    * indicate the withdrawl\n    * @notice the donersAddresses is used to store an array of all donars that\n    * contributed as maps are not itterable by populated keys\n    */\n    struct Campaign {\n        address manager;\n        uint startingTime;\n        uint endingTime;\n        uint balance;\n        uint goal;\n        uint cap;\n        State state;\n        mapping(address=>int[]) doners;\n        address[] donersAddresses;\n        string ipfsHash;\n    }\n    \n    /** @dev store the total number of campaigns. Useful for retreving all of them **/\n    uint campaignCount;\n    \n    /**\n    * @dev Stop the creation of new campagins\n    */\n    bool emergencyStop_stopCreation = false;\n    \n    /**\n    * @dev stops the fundion of existing campagins\n    */\n    bool emergencyStop_stopFunding = false;\n    \n    /** @dev store all campaigns as a mapping to their unique ID **/\n    mapping(uint=>Campaign) public campaigns;\n    \n    /**\n    * @dev Verify the times spesified for the campaign are valid\n    * @param _startingTime of the campaign (unix time stamp)\n    * @param _endingTime of the campaign (unix time stamp)\n    */\n    modifier validNewCampaignTime(uint _startingTime,uint _endingTime){\n        require(_startingTime>=now);\n        require(_endingTime>_startingTime);\n        _;\n    }\n    \n    /**\n    * @dev Verify the goals and cap for the campaign are valid\n    * @notice if the cap is set to zero, it is uncapped\n    * @param _goal value of the campaign (in ETH)\n    * @param _cap value of the campaign (in ETH)\n    */\n    modifier validNewCampaignFunding(uint _goal,uint _cap) {\n        if(_cap !=0){\n            require(_cap>_goal);\n        }\n        _;\n    }\n    \n    /**\n    * @dev Verify the current time is past the start time of the camaign\n    * @param _campaignID unique identifer of the campaign\n    */\n    modifier campaignHasStarted(uint _campaignID) {\n        require(now>campaigns[_campaignID].startingTime);\n        _;\n    }\n    \n    /**\n    * @dev checks if the campaign is yet to start\n    * @param _campaignID unique identifer of the campaign\n    */\n    modifier campaignNotStarted(uint _campaignID){\n        require(now < campaigns[_campaignID].startingTime);\n        _;\n    }\n\n    /**\n    * @dev checks if the campain has ended (current time more than end time)\n    * @param _campaignID unique identifer of the campaign\n    */\n    modifier campaignEnded(uint _campaignID){\n        require(now>campaigns[_campaignID].endingTime);\n        _;\n    }\n\n    /**\n    * @dev Verify the current time is not past the end time of the camaign\n    * @param _campaignID unique identifer of the campaign\n    */\n    modifier campaignHasNotEnded(uint _campaignID) {\n        require(now<campaigns[_campaignID].endingTime);\n        _;\n    }\n    \n\n    \n\n    \n    /**\n    * @dev checks if the campain has Succeeded (donation > than goal)\n    * @param _campaignID unique identifer of the campaign\n    */\n    modifier campaignSucceeded(uint _campaignID){\n        require(campaigns[_campaignID].balance>campaigns[_campaignID].goal);\n        _;\n    }\n\n    /**\n    * @dev checks if the campain has failed (donation < than goal)\n    * @param _campaignID unique identifer of the campaign\n    */\n    modifier campaignUnsuccessful(uint _campaignID) {\n        require(now > campaigns[_campaignID].endingTime);\n        require(campaigns[_campaignID].balance > campaigns[_campaignID].goal);\n        _;\n    }\n\n    /**\n    * @dev checks if a campain has been funded, and therefore paid out. \n    * @notice This assertion prevents manager's from withdrawing twice from a fund.\n    * @param _campaignID unique identifer of the campaign\n    */\n    modifier campaignNotFunded(uint _campaignID){\n        require(campaigns[_campaignID].state != State.Funded);\n        _;\n    }\n    \n    /**\n    * @dev Verify that the donation will not cause the campaign to exceed its cap\n    * @notice this function takes into account the current balance and the donation\n    * @param _campaignID unique identifer of the campaign\n    */\n    modifier campaignWillNotExceedCap(uint _campaignID) {\n        require(campaigns[_campaignID].balance + msg.value<=campaigns[_campaignID].cap);\n        _;\n    }\n    \n    /**\n    * @dev Verify that the donation will not cause the campaign to drop below\n    * its goal. This prevents someone from making a campaign that would succeed,\n    * fail due to cancelling their contribution\n    * @notice value is required as the user has the choice to either cancle or\n    * reduce their donation.\n    * @param _campaignID unique identifer of the campaign\n    * @param _value is the amount that the donar wants to reduce their donation by\n    */\n    modifier campaignWillNotDropBelowGoal(uint _campaignID, uint _value) {\n        if(campaigns[_campaignID].balance>campaigns[_campaignID].cap){\n            require(campaigns[_campaignID].balance-_value > campaigns[_campaignID].cap);\n        }\n        _;\n    }\n    \n    /**\n    * @dev Verify that the reduction from a donation will not cause the donation\n    * to drop below zero, and as such enabling the user to take out more than\n    * they deposited. Moreover, this check ensures that a user who did not donate\n    * cant withdraw as this assert will fail as their total donation balance will\n    * be zero.\n    * @notice the function needs to check the total donation for the user by\n    * summing over all previous donations\n    * @param _campaignID unique identifer of the campaign\n    * @param _value is the amount that the donar wants to reduce their donation by\n    */\n    modifier adequetDonationToReduce(uint _campaignID, uint _value){\n        int totalDonation = 0;\n        for (uint i=0; i<campaigns[_campaignID].doners[msg.sender].length;i++){\n            totalDonation += campaigns[_campaignID].doners[msg.sender][i];\n        }\n        require(totalDonation-int(_value)>=0);\n        _;\n    }\n    \n    /**\n    * @dev checks that the caller of the function is the campaign's manager;\n    * This is the person that create the campaign.\n    * @param _campaignID unique identifer of the campaign\n    */\n    modifier onlyManager(uint _campaignID){\n        require(msg.sender == campaigns[_campaignID].manager);\n        _;\n    }\n    /**\n    * @dev checks if a caller of the function is a Contributer to the campaign\n    * @notice If they have contributed, there will be some items within the \n    * doners array representing donations.\n    * @param _campaignID unique identifer of the campaign\n    */\n    modifier onlyContributer(uint _campaignID){\n        require(campaigns[_campaignID].doners[msg.sender].length > 0);\n        _;\n    }\n    \n    /**\n    * @dev Prevents the creation of new campaigns\n    */\n    modifier emergencyStop_Creation(){\n        assert(!emergencyStop_stopCreation);\n        _;\n    }\n    \n    /**\n    * @dev Prevents the funding of new campaigns\n    */\n    modifier emergencyStop_Funding(){\n        assert(!emergencyStop_stopFunding);\n        _;\n    }\n    \n     /** @dev Assign owner and reset campaign */\n    constructor() \n        public {\n        owner = msg.sender;\n        campaignCount = 0;\n    }\n    \n    function enableEmergencyStop_Creation()\n        public\n        onlyOwner\n    {\n        emergencyStop_stopCreation = true;\n    }\n    \n    function enableEmergencyStop_Funding()\n        public\n        onlyOwner\n    {\n        emergencyStop_stopFunding = true;\n    }\n    \n    /**\n    * @dev Generate a new campaign struct and store it. Assign manager and values\n    * @notice this sets the inital value of the State to NotStarted\n    * @param _startingTime unix time stamp of when the campaign will start\n    * @param _endingTime unix time stamp of when the campaign will end\n    * @param _goal value of the campaign (in ETH).\n    * @param _cap value of the campaign (in ETH)\n    * @param _ipfsHash represents the campain information on IPFS in a hash\n    */\n    function createCamaign(\n        uint _startingTime, \n        uint _endingTime, \n        uint _goal, \n        uint _cap, \n        string _ipfsHash\n    ) \n        public\n        validNewCampaignTime(_startingTime,_endingTime)\n        validNewCampaignFunding(_goal,_cap)\n        emergencyStop_Creation\n    {\n        address[] memory emptydonersAddresses;\n        campaigns[campaignCount] = Campaign({\n            manager: msg.sender,\n            startingTime: _startingTime,\n            endingTime: _endingTime,\n            balance: 0,\n            goal: _goal,\n            cap: _cap,\n            state: State.NotStarted,\n            donersAddresses: emptydonersAddresses,\n            ipfsHash: _ipfsHash\n        });\n        campaignCount += 1;\n    }\n    \n    /**\n    * @dev Enable anyone to donate to a campaign. The campaign must have started,\n    * have not finished and not exceeded it's cap to be able to deposit.\n    * @notice this changes the state of a campaign from NotStarted -> Running\n    * @param _campaignID unique identifer of the campaign\n    */\n    function fundCampaign(uint _campaignID) \n        public\n        payable\n        campaignHasStarted(_campaignID)\n        campaignHasNotEnded(_campaignID)\n        campaignWillNotExceedCap(_campaignID)\n        emergencyStop_Funding\n    {\n        campaigns[_campaignID].balance += msg.value;\n        // Need to implicity typecast the msg.value for as donars can be\n        // negative when withdrawing\n        campaigns[_campaignID].doners[msg.sender].push(int(msg.value));\n        // There is no point in storing a doners address multiple times in the\n        //donersAddresses array so only add if you this is your first contribution\n        if(campaigns[_campaignID].doners[msg.sender].length==0){\n            campaigns[_campaignID].donersAddresses.push(msg.sender);         \n        }\n        if (campaigns[_campaignID].state != State.Running){\n            campaigns[_campaignID].state = State.Running;\n        }\n    }\n    \n    /**\n    * @dev Enable any donar to reduce their donation. The campaign must have,\n    * started have not finished and their reduction must not make a project that\n    * would succeed fail due to the reduction.\n    * @notice we dont need to check the state of the campain as you would only\n    * call this function if you had at some point donated and the check is done \n    * there (function fundCampaign).\n    * @param _campaignID unique identifer of the campaign\n    * @param _value the amount bywhich the campaign is reduced\n    */\n    function reduceDontation(uint _campaignID, uint _value)\n        public\n        campaignHasStarted(_campaignID)\n        campaignHasNotEnded(_campaignID)\n        campaignWillNotDropBelowGoal(_campaignID, _value)\n        adequetDonationToReduce(_campaignID, _value)\n    {\n        campaigns[_campaignID].balance - _value;\n        // store the reduction in the doners respective array as a negative value\n        // preserving a history of reductions. The sum of this array is their\n        // respective donation\n        campaigns[_campaignID].doners[msg.sender].push(-int(_value));\n        msg.sender.transfer(_value); //refund the user for the Ether they sent in\n    }\n    \n    /**\n    * @dev Enable the campaign manager to withdraw the funds donated after the \n    * period is finished. The state of the campaign.state defines if the ownerc\n    * @notice The campaign state changes from Running -> Funded\n    * @param _campaignID unique identifer of the campaign\n    */\n    function withdrawCampaignFunds(uint _campaignID)\n        public\n        onlyManager(_campaignID)\n        campaignEnded(_campaignID)\n        campaignSucceeded(_campaignID)\n        campaignNotFunded(_campaignID)\n    {\n        campaigns[_campaignID].state = State.Funded;\n        msg.sender.transfer(campaigns[_campaignID].balance);\n    }\n    \n    /**\n    * @dev Enables someone who contributed to a failed campaign to get back \n    * their contributions back. This is a sum of all their contributions\n    * period is finished. \n    * @notice The campaign state changes from Running -> Failed\n    * @param _campaignID unique identifer of the campaign\n    */\n    function refundFailedCampaign(uint _campaignID)\n        public\n        onlyContributer(_campaignID)\n        campaignEnded(_campaignID)\n        campaignUnsuccessful(_campaignID)\n    {\n        uint totalContributed = 0;\n        for (uint i = 0;i < campaigns[_campaignID].doners[msg.sender].length; i++){\n            totalContributed += uint(campaigns[_campaignID].doners[msg.sender][i]);\n        }\n        // Take away their whole contribution from their profile. This means\n        // that if they try redraw again the sum total == 0\n        campaigns[_campaignID].doners[msg.sender].push(-int(totalContributed));\n        msg.sender.transfer(totalContributed);\n    }\n\n    /**\n    * @dev Enables a fund manager to update the ipfs hash on an entry in the \n    * case they change it. \n    * @notice They can ONLY do this before a fund is sstarted.\n    * @param _campaignID unique identifer of the campaign\n    * @param _newHash defines the new IPFS hash for the campaign\n    */\n    function updateIpfsHash(uint _campaignID, string _newHash)\n    public\n    onlyManager(_campaignID)\n    campaignNotStarted(_campaignID)\n    {\n        campaigns[_campaignID].ipfsHash = _newHash;\n    }\n}",
  "sourcePath": "/home/chris/Projects/EthStarter/contracts/CampaignManager.sol",
  "compiler": {
    "name": "solc",
    "version": "0.4.24+commit.e67f0147.Emscripten.clang"
  },
  "schemaVersion": "2.0.1",
  "updatedAt": "2018-08-19T06:45:00.210Z"
}